:100000002FC1000056C400004FC100004DC10000C8
:100010004BC1000049C1000047C1000045C10000BC
:1000200043C1000041C100003FC100003DC10000CC
:100030003BC1000039C1000037C1000035C10000DC
:1000400033C1000031C100002FC100002DC10000EC
:100050002BC1000029C1000027C1000025C10000FC
:1000600023C1000021C100001FC100001DC100000C
:100070001BC1000019C1000017C1000015C100001C
:1000800013C1000011C100000FC100000DC100002C
:100090000BC1000009C1000007C1000005C100003C
:1000A00003C1000001C10000FFC00000FDC000004E
:1000B000FBC00000F9C00000F7C00000F5C0000060
:1000C000F3C00000F1C00000EFC00000EDC0000070
:1000D000EBC00000E9C00000E7C00000E5C0000080
:1000E000E3C00000E1C00000DFC00000DDC0000090
:1000F000DBC00000D9C00000D7C00000D5C00000A0
:10010000D3C00000D1C00000CFC00000CDC00000AF
:10011000CBC00000C9C00000C7C00000C5C00000BF
:10012000C3C00000C1C00000BFC00000BDC00000CF
:10013000BBC00000B9C00000B7C00000B5C00000DF
:10014000B3C00000B1C00000AFC00000ADC00000EF
:10015000ABC00000A9C00000A7C00000A5C00000FF
:10016000A3C00000A1C000009FC000009DC000000F
:100170009BC0000099C0000097C0000095C000001F
:1001800093C0000091C000008FC000008DC000002F
:100190008BC0000089C0000087C0000085C000003F
:1001A00083C0000081C000007FC000007DC000004F
:1001B0007BC0000079C0000077C0000075C000005F
:1001C00073C0000071C000006FC000006DC000006F
:1001D0006BC0000069C0000067C0000065C000007F
:1001E00063C0000061C000005FC000005DC000008F
:1001F0005BC0000059C0000057C0000005030703A2
:100200000A0315030C0312031703910477047904FE
:100210007B047D047F0481048304870489048B04A8
:100220008D04B404B804BC04C004C404C804CC04E1
:100230000705ED04EF04F104F304F504F704F904F1
:10024000FD04FF04010503053C05220524052605E0
:1002500028052A052C052E053205340536053805F6
:1002600011241FBECFEFCDBFDFE3DEBF01E00CBF27
:1002700018BE19BE1ABE1BBE10E2A8E0B0E2EAEB3F
:10028000F0E102E00BBF02C007900D92A830B10769
:10029000D9F71BBE20E2A8E0B0E201C01D92A13157
:1002A000B207E1F7FAD307C7ABCECF93DF93C0E035
:1002B000D0E0CE014AD2A5D62196C11582E0D8075A
:1002C000C1F7DF91CF910895F8941CBEE09108200A
:1002D000F091092019950895A4E0B0E0E1E7F1E07C
:1002E000BEC6813029F480E090E1A2E0B0E004C015
:1002F00080E090E1A0E0B0E0BC01CD0164507E4F11
:100300008F4F9F4F04E010E020E030E0AE014F5FE0
:100310005F4F3CD589819A81AB81BC810296A11D3A
:10032000B11D8130910522E0A207B10520F080E0E7
:1003300090E0A2E0B0E089839A83AB83BC836981BB
:100340007A818B819C812496E4E0A2C6A0E0B1E092
:10035000EBEAF1E07CC6A9DF80E0BEDFBB27A92F76
:10036000982F872F7C012FEFE21AF20A81E0E8161E
:1003700082E0F80618F0E12C92E0F92E812C80E161
:10038000982EA12CB12CC12CD12CCE14DF04C1F09D
:1003900000E011E020E030E0AE014F5F5F4FC501AB
:1003A000B401F4D4BE016F5F7F4FC601D9D129D605
:1003B0002FEFC21AD20A8FEF981AA80AB80AE5CF0F
:1003C000D395ECE05DC6A0E0B1E0E8EEF1E03FC619
:1003D0006CDF81E081DFBB27A92F982F872F7C015D
:1003E0002FEFE21AF20A81E0E81682E0F80618F030
:1003F000E12C92E0F92E812C80E1982E82E0A82E4B
:10040000B12CC12CD12CCE14DF04C1F000E011E0DE
:1004100020E030E0AE014F5F5F4FC501B401B6D4BC
:10042000BE016F5F7F4FC6019BD1EBD52FEFC21A84
:10043000D20A8FEF981AA80AB80AE5CFD395ECE054
:100440001FC6A4E0B0E0E6E2F2E00BC644E050E0F4
:100450006CEF71E0CE01019625D689819A81AB813E
:10046000BC810296A11DB11D8130910522E0A20739
:10047000B10520F080E090E0A2E0B0E089839A83AB
:10048000AB83BC8369817A818B819C812496E2E075
:1004900001C68F929F92AF92BF92CF92DF92EF925E
:1004A000FF92CF93DF937FD3EC01CBDF4B015C0155
:1004B000C12CD12C7601C814D904EA04FB0479F0CC
:1004C0000BB6EBBEF60167910BBECE018DD3EC01EE
:1004D00098D58FEFC81AD80AE80AF80AECCFCE01EF
:1004E0008BD3DF91CF91FF90EF90DF90CF90BF90B3
:1004F000AF909F908F900895A2E0B1E0E1E8F2E024
:10050000A0C5182F50D3CF5FDE4F88839983C15089
:10051000D140812FE1DE6B017C01113039F4412C97
:1005200020E1522E22E0622E712C33C0412C90E14A
:10053000592E612C712C2DC08FEFC816D104E10407
:10054000F10409F060F516014101A12CB12C9501CF
:100550008401AE014F5F5F4FC301B20117D4480C55
:10056000591C6A1C7B1CC818D908EA08FB08A101A1
:10057000BE016F5F7F4FCF5FDE4F88819981C15091
:10058000D14020D3CF5FDE4F88839983C150D140C3
:1005900038D5C114D104E104F10471F604C0212C52
:1005A00033243394D1CFCF5FDE4F88819981C150FE
:1005B000D14022D3CE5FDE4FE2E15CC5E0E6F6E05B
:1005C00090E2918380E18183A0E4B6E011968C9360
:1005D00011979583858315968C930895A2E0B0E0DA
:1005E000E3EFF2E03EC56A838983E8DF89816A81AF
:1005F000882329F1862F90E08730910500F5FC01D2
:100600008827E250FF4F8E4F13C580E216C080E26C
:100610008093660680E103C080E180936606809344
:1006200046060DC080E28093660680E106C080E247
:100630008093660680E18093460680936606229644
:10064000E2E028C5FF93EF93BBB7BF938BBFFB01DD
:100650008091CA0123E22093CA010A01E89511247E
:100660008093CA01BF91BBBFEF91FF910895FF93A3
:10067000EF93BBB7BF938BBFFB018091CA0140933F
:10068000CA014DE940933400E8958093CA01BF91B7
:10069000BBBFEF91FF9108951092CA018091CF01E5
:1006A00087FDFCCF08958091CF01881F8827881F80
:1006B0000895C8DF8091CF0187FDFCCF0895209178
:1006C000CF0127FDFCCF44E2D2DF8091CF0187FD2F
:1006D000FCCF089542E2CBDF8091CF0187FDFCCFB4
:1006E000089580910A20089561E086E0F1D061E0EC
:1006F00087E0EED086E09CD18823F1F087E098D1A6
:100700008823D1F064E086E0E3D060E086E05BD14E
:1007100087E08ED1811110C061E086E0D9D064E01D
:1007200087E0D6D060E087E04ED186E081D18111AC
:1007300003C081E080930A2060E086E0C9D060E0D9
:1007400087E0C6C00895A8CF0895A0E0B0E066276E
:10075000782F892F9A2FBEDFA6DF8111FDCF089554
:100760004F925F926F927F928F929F92AF92BF92C1
:10077000CF92DF92EF92FF92CF93DF93EB016C0168
:10078000E12CF12CFE2CED2CDC2CCC244601570165
:10079000260137018FEF581A680A780A84149504E5
:1007A000A604B70498F488812296FE01319740810F
:1007B00050E0542F4427480F511DC501B40179DF83
:1007C00082E0880E911CA11CB11CE8CFC701B601C4
:1007D00076DF69DF8111FDCFDF91CF91FF90EF9040
:1007E000DF90CF90BF90AF909F908F907F906F9051
:1007F0005F904F900895F89482E08093520080912A
:1008000050008860809350008091510083FFFCCF9E
:1008100081EA80936D0087E080936E00809156009E
:1008200081608093560081E08093680080E180932E
:10083000550080915000806180935000809151005C
:1008400084FFFCCF88ED84BF84E0809340008091DA
:1008500050008260809350008091510081FFFCCF56
:1008600091E09093530080915600846080935600ED
:100870008BE18093650087EB8093660082E0809334
:10088000CA01EDE1F0E0E491E0936200ECE1F0E018
:10089000E491E09363001092CA019093600083E0BA
:1008A0008093440087E08093A200089580917800AF
:1008B00008951F920F920FB60F92112408B60F924F
:1008C00018BE0F9008BE0F900FBE0F901F90189586
:1008D000CF92DF92EF92FF9290E08C30910508F07A
:1008E0006DC0FC018827EB5FFE4F8E4FA1C395E0E2
:1008F00015C097E013C096E011C091E013C090E0DE
:1009000011C092E001C093E0A0E2B6E00DC090E01B
:1009100005C091E003C092E001C093E0A0E4B6E01E
:1009200003C094E0A0E0B6E0633018F0643029F42E
:1009300006C0613031F0623031F020E005C028E2BD
:1009400003C028E101C020E1C92ED12CF601319766
:10095000E730F10528F48827EF5EFE4F8E4F68C31D
:1009600050962C9350971BC051962C93519717C0BB
:1009700052962C93529713C053962C9353970FC0B3
:1009800054962C9354970BC055962C93559707C0AB
:1009900056962C93569703C057962C93579721E061
:1009A00030E0A90102C0440F551F9A95E2F7633069
:1009B00018F011964C9302C012964C93FF90EF9052
:1009C000DF90CF90089590E08C30910580F5FC0188
:1009D0008827E85EFE4F8E4F2BC385E015C087E069
:1009E00013C086E011C081E013C080E011C082E036
:1009F00001C083E0E0E2F6E00DC080E005C081E0E8
:100A000003C082E001C083E0E0E4F6E003C084E0DC
:100A1000E0E0F6E021E030E0A90102C0440F551FFC
:100A20008A95E2F7662311F0458308954683089579
:100A300090E08C30910578F5FC018827EC5DFE4F45
:100A40008E4FF6C295E015C097E013C096E011C036
:100A500091E013C090E011C092E001C093E0E0E2A9
:100A6000F6E00DC090E005C091E003C092E001C047
:100A700093E0E0E4F6E003C094E0E0E0F6E0808597
:100A8000282F30E0A90102C0559547959A95E2F7C5
:100A9000CA018170089580E00895F894ACDEBBD25D
:100AA00052DE22DE0AD1B1D001DF80FF04C01092F5
:100AB00003201092042082E38093052080E380933A
:100AC0000620109207200DDE811107C080910320BF
:100AD000909104208736914431F5F3D0E6D084EC30
:100AE00099E020E233E0F9013197F1F70197D9F766
:100AF000E0D0E3D084EC99E020E233E0F9013197D3
:100B0000F1F70197D9F781E0F7DC892B61F45BDC21
:100B1000C0DC892B41F4109203201092042084E061
:100B200080930720D1DBB5DC892B79F0C5E0D2E0DA
:100B300080E0E2DC892B19F0C150D1F718C006DC47
:100B4000D0930720A6DC892BB9F7809103209091E0
:100B500004208231904209F580E0CEDC892BD1F46B
:100B6000F5DB97DC21E020930720892BB1F0A9D099
:100B7000ACD081E0C1DC892B61F425DC8ADC892BD7
:100B800041F4109203201092042084E08093072007
:100B90009BDBFFCF83E0809307201092032010920D
:100BA000042092DBE4CFE0EDF0E080EC80830000F5
:100BB0008DE185838FE084838081816080838FEFE6
:100BC0009FEF0895460F571F6417750731F0FB011B
:100BD0008191BF018093D300F7CF2091D500809100
:100BE000D40090E0922B0895E0EDF0E0638325813E
:100BF000848190E0922B0895E0EDF0E081E0818324
:100C00002581848190E0922B08959FC10895A3E0EF
:100C1000B0E0ECE0F6E025C2CE0101965AD1898120
:100C20008F3B29F08F3E61F08130C9F520C08A8169
:100C30008532A9F58B818D38F1F08E3881F520C091
:100C40008A81803321F48B81833149F514C080344B
:100C500031F58B818431A1F08531B9F08631D1F045
:100C60008731E9F460E070E080E890E01BC08B81A0
:100C70008531A9F40AC060E070E088E090E012C01D
:100C800060E070E080E190E00DC060E070E080E244
:100C900090E008C060E070E080E490E003C060E0B5
:100CA00070E0CB012396E2E0F5C160E081E096CCF4
:100CB000089560E080E092CC089561E081E08ECC00
:100CC000089561E080E08ACC089562E081E086CCFE
:100CD0000895809164068E7F8093640685E08093FA
:100CE000A0098091A10986FFFCCF80E48093A1092F
:100CF0008091A0091092A0098091A10986FFFCCFE4
:100D000080E48093A1098091A0099091640691608C
:100D1000909364060895DDDF8170089590916406D4
:100D20009E7F9093640690E59093A0099091A1090D
:100D300096FFFCCF90E49093A1099091A009909127
:100D40006406916090936406909164069E7F9093F0
:100D5000640691E09093A0099091A10996FFFCCFC1
:100D600090E49093A1099091A0098093A0098091AB
:100D7000A10986FFFCCF80E48093A1098091A0099E
:100D8000809164068160809364060895A0E0B0E0DD
:100D9000EBECF6E05CC14B015C01EA016801790112
:100DA000011511052105310509F461C0B4DF811178
:100DB000FDCF809164068E7F8093640683E08093EC
:100DC000A0098091A10986FFFCCF80E48093A1094E
:100DD0008091A009C501AA27BB278093A009809113
:100DE000A10986FFFCCF80E48093A1098091A0092E
:100DF000BB27AB2D9A2D892D8093A0098091A10945
:100E000086FFFCCF80E48093A1098091A0098092A5
:100E1000A0098091A10986FFFCCF80E48093A109FD
:100E20008091A0091092A00980E492E0C916D10433
:100E300078F09091A10996FFFCCF8093A109909141
:100E4000A00999931092A00991E0C91AD108EDCF99
:100E50008091A10986FFFCCF80E48093A109809155
:100E6000A009888380916406816080936406CDB771
:100E7000DEB7ECE005C1809164068E7F8093640646
:100E800086E08093A0098091A10986FFFCCF80E4D1
:100E90008093A1098091A00980916406816080936C
:100EA00064060895809164068E7F8093640684E0D2
:100EB0008093A0098091A10986FFFCCF80E48093F4
:100EC000A1098091A00980916406816080936406E5
:100ED0000895FC01809164068E7F809364068FE9FB
:100EE0008093A0098091A10986FFFCCF80E48093C4
:100EF000A1098091A0091092A0098091A10986FF03
:100F0000FCCF80E48093A1098091A0098083109296
:100F1000A0098091A10986FFFCCF80E48093A109FC
:100F20008091A00981831092A0098091A10986FF78
:100F3000FCCF80E48093A1098091A00982838091F5
:100F400064068160809364060895A3E0B0E0EAEA55
:100F5000F7E087C0809160068A6080936006809188
:100F600060068B7F8093600680EC8093A5091092C9
:100F7000A6091092A70988E18093A40980916006D0
:100F8000816080936006809164068160809364062E
:100F90008091640681608093640684DFCE010196AF
:100FA00098DF89818F3B19F481E080930F20809135
:100FB0000F208823B1F0809164068E7F80936406B1
:100FC00080E88093A0098091A10986FFFCCF80E48E
:100FD0008093A1098091A00980916406816080932B
:100FE000640615DE60930B2070930C2080930D2017
:100FF00090930E2040DF80E091DE54DF2396E2E004
:1010000049C08FB7F89498E2909310209FB78078EA
:10101000892B8FBF08958FB7F894A89598ED94BF4A
:1010200091E0909380009FB78078892B8FBF0895BF
:10103000EE0FFF1F881F8BBF0790F691E02D1BBEA0
:1010400019942F923F924F925F926F927F928F925C
:101050009F92AF92BF92CF92DF92EF92FF920F9347
:101060001F93CF93DF93CDB7DEB7CA1BDB0BCDBF8A
:10107000DEBF19942A88398848885F846E847D840D
:101080008C849B84AA84B984C884DF80EE80FD8030
:101090000C811B81AA81B981CE0FD11DCDBFDEBFCE
:1010A000ED010895FB01DC0102C005900D92415055
:0A10B0005040D8F70895F894FFCFE0
:0400000320000000D9
:00000001FF
